:020000040800F2
:1000000000500020B53F0008690200086B0200089C
:100010006D0200086F020008710200080000000075
:100020000000000000000000000000007302000853
:10003000750200080000000077020008790200083D
:10004000F93F0008F93F0008F93F0008F93F0008B0
:10005000F93F0008F93F0008F93F0008F93F0008A0
:10006000F93F0008F93F0008F93F0008F93F000890
:10007000F93F0008F93F0008F93F0008F93F000880
:10008000F93F0008F93F0008F93F0008F93F000870
:10009000F93F0008F93F0008F93F0008F93F000860
:1000A000F93F0008F93F0008F93F0008F93F000850
:1000B000F93F0008F93F0008F93F0008F93F000840
:1000C000F93F0008F93F0008F93F0008F93F000830
:1000D000F93F0008F93F0008F93F0008F93F000820
:1000E000F93F0008F93F0008F93F00080000000050
:1000F0000000000000000000000000000000000000
:0C01000000000000000000005FF808F1A3
:10010C00FC3F0008000000202800002028000020F0
:10011C0028000020374B82B01A6842F001021A60A6
:10012C005968354A0A405A601A6822F0847222F4DF
:10013C0080321A601A6822F480221A605A6822F4FB
:10014C00FE025A604FF41F029A6000220092019244
:10015C001A6842F480321A601A6802F40032019272
:10016C00009A01320092019A1AB9009AB2F5A06F66
:10017C00F2D11A6812F4003218BF01220192019ACE
:10018C00012A30D11D4A116841F01001116011682B
:10019C0021F003011160116841F0020111605A68ED
:1001AC005A605A685A605A6842F480625A605A68B7
:1001BC0022F47C125A605A6842F4E8125A601A68A7
:1001CC0042F080721A601A689201FCD55A6822F0CB
:1001DC0003025A605A6842F002025A605A6802F0EE
:1001EC000C02082AFAD14FF00062054B9A6002B05B
:1001FC00704700BF001002400000FFF800200240D2
:10020C0000ED00E0104B11495A6802F00C02082A6C
:10021C000AD00F4A0A605B680E4AC3F30313D25C20
:10022C000B68D3400B6070475A685868C2F383421E
:10023C00C00302F1020202D407484243EAE75868BD
:10024C008003F9D40248F8E70010024010000020A7
:10025C0000127A000000002000093D007047FEE704
:10026C00FEE7FEE7FEE770477047704770470023D4
:10027C00194682B0834201D102B070470191019AB4
:10028C00B2F5FA6F01D30133F4E7019A013201920E
:10029C00F5E700001FB50121042001F05DFD1A4BAC
:1002AC0069461A48009303F058FC0121022001F022
:1002BC005FFD41F61F4242F20F73CDE9012300238B
:1002CC00134801A98DF80C3000F094FB0121104863
:1002DC0000F005FD0E4E0D4D01210D4801F054F8B6
:1002EC0001280446F8D10146304601F053F8214666
:1002FC00284603F092FCB0FA80F2214628465209B7
:10030C0003F098FCE8E700BF010002100008014070
:10031C000004004008B501214FF0805001F040FD71
:10032C00BDE8084000214FF0805001F039BD0000BD
:10033C00014B1860704700BF20000E42014B186043
:10034C00704700BF10000E42034A136823F0E0030D
:10035C0003431360704700BF00700040014B1860EE
:10036C00704700BFA0000E420A4A0129136823F00F
:10037C00030343EA00031360074B1A6942F00402BB
:10038C001A6105D130BF1A6922F004021A61704754
:10039C0020BFF8E70070004000ED00E0074B1A6842
:1003AC0042F004021A601A6842F002021A60044A0F
:1003BC00136943F00403136130BF704700700040B1
:1003CC0000ED00E0034B5B68034214BF01200020EA
:1003DC00704700BF00700040024A136843EA800374
:1003EC00136070470070004008B5144B98420BD155
:1003FC0001214FF4007001F0C7FC00214FF4007094
:10040C00BDE8084001F0C0BC0D4B984208D1012159
:10041C004FF4806001F0B8FC00214FF48060EFE7EE
:10042C00084B984208D101214FF4004001F0ACFC7C
:10043C0000214FF40040E3E708BD00BF0024014059
:10044C0000280140003C014043680A7923F47023E2
:10045C0023F4807343EA02230A6810B51343436004
:10046C008468D1E902231343084A224013434A7992
:10047C0043EA420383600A7CC36A013A23F47003A3
:10048C00D2B243EA0253C36210BD00BFFDF7F1FFC5
:10049C000023C0E902330360838001230374704797
:1004AC00836819B143F001038360704723F00103A3
:1004BC00FAE7836819B143F480738360704723F4BF
:1004CC008073FAE74368C9B212B1194341607047AF
:1004DC0023EA0101FAE7836843F00803836070475D
:1004EC008068C0F3C0007047836843F004038360E6
:1004FC0070478068C0F380007047836819B143F47B
:10050C00A0038360704723F4A003FAE78068C0F36C
:10051C00805070474368013923F4604343EA413308
:10052C0043607047436819B143F4006343607047FC
:10053C0023F40063FAE7092970B51BD90726A1F14A
:10054C000A04C56804EB4404A64025EA060503FA30
:10055C0004F42C43C460062A18D8531E1F22446B83
:10056C0003EB83039A4024EA020401FA03F22243C8
:10057C00426370BD0724056901EB4106B44025EACE
:10058C00040503FA06F42C430461E4E70C2A0CD8A6
:10059C001F24073A036B02EB8202944023EA040304
:1005AC0001FA02F21A430263E3E71F240D3AC36A0D
:1005BC0002EB8202944023EA040301FA02F21A438A
:1005CC00C262D6E7836819B143F480138360704725
:1005DC0023F48013FAE7C06C80B27047014B1868A3
:1005EC00704700BF4C240140436819B143F4806349
:1005FC004360704723F48063FAE7436819B143F40E
:10060C0080534360704723F48053FAE7836823F4E4
:10061C00E0430B4383607047836819B143F4004394
:10062C008360704723F40043FAE7836819B143F4FD
:10063C0002138360704723F40213FAE78068C0F357
:10064C0040507047092970B51DD90726A1F10A043D
:10065C00C56804EB4404A64025EA060503FA04F435
:10066C002C43C460846B931CC4F301529B1A1F224D
:10067C00DBB203EB83039A4024EA020401FA03F38E
:10068C002343836370BD0724056901EB4106B44025
:10069C0025EA040503FA06F42C430461E2E7836BB4
:1006AC00013923F4401343EA015383637047002359
:1006BC0082B001930190019B19440191019B1A6036
:1006CC0002B07047002382B001930190019B283344
:1006DC000B440193019B186880B202B070474368C9
:1006EC0023F4400323F400730B43436070474162CF
:1006FC0082627047436823F01F03194341607047BF
:10070C00044B9A6818B142F400029A60704722F4C4
:10071C000002FAE7002401400368194214BF0120CB
:10072C0000207047C943016070474368006810EAB5
:10073C00112004D0C9B2194214BF01200020704707
:10074C006FEA11210160704770B5068C42EA031202
:10075C0026F001063604360C0684048B154B24F067
:10076C00F3042404058C240C14439842ADB2A4B2B7
:10077C0012D003F5006398420ED0B0F1804F0BD02D
:10078C00A3F59833984207D003F58063984203D0C1
:10079C0003F58063984208D125F0020341EA030572
:1007AC0045F001050483058470BD25F00A050D4351
:1007BC00F6E700BF002C014070B5048C120224F047
:1007CC0010042404240C0484058B42EA033225F41F
:1007DC004075154B2D05048C2D0D0E0115439842BB
:1007EC00A4B2B6B2ADB212D003F5006398420ED0EB
:1007FC00B0F1804F0BD0A3F59833984207D003F596
:10080C008063984203D003F58063984208D124F0AA
:10081C00200446EA040141F010010583018470BDF7
:10082C0024F0A0042143F6E7002C014008B5614BED
:10083C0098420BD101214FF4006001F0A5FA002180
:10084C004FF40060BDE8084001F09EBAB0F1804F53
:10085C0009D10121084601F0A3FA00210120BDE8CD
:10086C00084001F09DBA544B984206D10121022058
:10087C0001F096FA00210220F1E7504B984206D184
:10088C000121042001F08CFA00210420E7E74C4BF5
:10089C00984206D10121082001F082FA002108209B
:1008AC00DDE7484B984206D10121102001F078FA7F
:1008BC0000211020D3E7444B984206D1012120207F
:1008CC0001F06EFA00212020C9E7404B984208D174
:1008DC0001214FF4005001F057FA00214FF4005061
:1008EC00B0E73B4B984208D101214FF4002001F0B6
:1008FC004BFA00214FF40020A4E7364B984208D164
:10090C0001214FF4801001F03FFA00214FF48010C8
:10091C0098E7314B984208D101214FF4001001F0B7
:10092C0033FA00214FF400108CE72C4B984206D17F
:10093C000121402001F034FA002140208FE7284BA0
:10094C00984206D10121802001F02AFA0021802052
:10095C0085E7244B984208D101214FF4807001F0B7
:10096C001FFA00214FF4807079E71F4B984208D191
:10097C0001214FF4803001F007FA00214FF4803050
:10098C0060E71A4B984208D101214FF4003001F076
:10099C00FBF900214FF4003054E7154B984208D175
:1009AC0001214FF4802001F0EFF900214FF4802059
:1009BC0048E708BD002C014000040040000800403E
:1009CC00000C0040001000400014004000340140B6
:1009DC00004C014000500140005401400018004000
:1009EC00001C004000200040004001400044014039
:1009FC0000480140224A038890429BB212D002F573
:100A0C00006290420ED0B0F1804F0BD0A2F598321C
:100A1C00904207D002F58062904203D002F58062CA
:100A2C00904203D14A8823F070031343154A904235
:100A3C0008D002F5806290421FBF23F44073CA882D
:100A4C009BB2134303808B8883850B8803850C4BE7
:100A5C0098420FD003F5006398420BD003F5406326
:100A6C00984207D003F58063984203D003F5806366
:100A7C00984201D10B7A038601238382704700BF11
:100A8C00002C014000100040038C70B523F00103D2
:100A9C001B041B0C0384038C8488028B0D8822F0AE
:100AAC0073021204120C4E882A4323F002030D89A0
:100ABC001B0435431B0C2B43144DA4B2A8429BB210
:100ACC000FD005F50065A8420BD005F54065A8428E
:100ADC0007D005F58065A84203D005F58065A842CE
:100AEC000ED14D8923F008032B438D8823F004038A
:100AFC00CE892B438D8924F4407435432C43A4B206
:100B0C0084800283CA888286038470BD002C0140D5
:100B1C00038C70B523F010031B041B0C0384038C93
:100B2C008488028B0D8822F4E6421204120C42EAED
:100B3C0005224E880D8923F020031B0435431B0C22
:100B4C0043EA0513114DA4B2A84292B29BB203D052
:100B5C0005F50065A84213D14D8923F0800343EAC3
:100B6C0005134FF6BF751D408B88CE8945EA0313DC
:100B7C008D8924F44064354344EA85049BB2A4B2C5
:100B8C0084800283CA880287038470BD002C0140D4
:100B9C00038C70B523F480731B041B0C0384038C2F
:100BAC008288848B0D8824F073042404240C4E88D2
:100BBC002C4323F400730D891B0435431B0C43EAAF
:100BCC000523114D92B2A8429BB203D005F50065E6
:100BDC00A84213D14D8923F4006343EA05234FF651
:100BEC00FF351D408B88CE8945EA03238D8922F47D
:100BFC004052354342EA05129BB292B28280CA88B7
:100C0C0084838287038470BD002C0140038C70B5F3
:100C1C0023F480531B041B0C0384038C8488828B69
:100C2C000D8822F4E6421204120C42EA05224E8888
:100C3C000D8923F400531B0435431B0C43EA053385
:100C4C000B4DA4B2A84292B29BB203D005F500653D
:100C5C00A84205D18D8924F4804444EA8514A4B2B9
:100C6C0084808283CA88A0F84020038470BD00BFB2
:100C7C00002C01404A880B8813438A881343CA8886
:100C8C0013430A8913434A8913438A8913439BB23A
:100C9C00A0F8443070474FF6FF7383800023038025
:100CAC00C38043800372704700230380438083809A
:100CBC00C380038143818381C38170470023012258
:100CCC00038043808280C3800381704700230380AC
:100CDC0043808380C3800381438183817047038871
:100CEC0021B19BB243F001030380704723F0010351
:100CFC001B041B0CF8E7B0F8443039B16FEA4343DE
:100D0C006FEA53439BB2A0F844307047C3F30E0311
:100D1C00F9E783899BB212B119438181704723EAA9
:100D2C000101FAE7818270471143A0F8481070471F
:100D3C00FFF7EFBF038923F007031B041B0C038190
:100D4C007047038923F070031B041B0C0B430381B6
:100D5C0003899BB243F007030381704738B50D46F6
:100D6C00602D114604464FF001020ED1FFF724FD11
:100D7C00238923F070031B041B0C2B432381238931
:100D8C009BB243F00703238138BDFFF7DDFCEFE78F
:100D9C0010B504890A43E4B242EA03221443A4B214
:100DAC00048110BD10B5FFF7F3FF038923F077031F
:100DBC001B041B0C43F07703038110BD10B5FFF728
:100DCC00E7FF03899BB243F48043038110BD018587
:100DDC0082827047038823F070031B041B0C0B43A7
:100DEC0003807047038923F070031B041B0C0B4317
:100DFC000381704770B50689048B058C24F440740C
:100E0C0024F0030425F0220526F0070624042D0403
:100E1C003604240C2D0C42EA0312360C44F4807474
:100E2C0015430E4344F00104ADB2068104830584DE
:100E3C0070BD038B23F070031B041B0C0B4303834B
:100E4C007047038B23F4E0431B041B0C43EA012380
:100E5C009BB203837047838B23F070031B041B0C22
:100E6C000B4383837047838B23F4E0431B041B0CDD
:100E7C0043EA01239BB283837047038821B19BB261
:100E8C0043F080030380704723F080031B041B0C8A
:100E9C00F8E7838821B19BB243F004038380704749
:100EAC0023F004031B041B0CF8E7838821B19BB2CD
:100EBC0043F008038380704723F008031B041B0CCA
:100ECC00F8E7838821B19BB243F00103838070471C
:100EDC0023F001031B041B0CF8E7038B23F008031E
:100EEC001B041B0C0B4303837047038B23F400631D
:100EFC001B041B0C43EA01239BB203837047838BB7
:100F0C0023F008031B041B0C0B4383837047838B58
:100F1C0023F400631B041B0C43EA01239BB2838361
:100F2C007047038B23F004031B041B0C0B4303833C
:100F3C007047038B23F480631B041B0C43EA0123CF
:100F4C009BB203837047838B23F004031B041B0C9D
:100F5C000B4383837047838B23F480631B041B0C2C
:100F6C0043EA01239BB283837047038B23F08003F6
:100F7C001B041B0C0B4303837047038BC3F30E033F
:100F8C0043EA01239BB203837047838B23F08003D6
:100F9C001B041B0C0B4383837047838BC3F30E031F
:100FAC0043EA01239BB283837047038C23F0020333
:100FBC001B041B0C0B4303847047038C23F00803A6
:100FCC001B041B0C0B4303847047038C23F020037E
:100FDC001B041B0C43EA01139BB203847047038C64
:100FEC0023F080031B041B0C43EA01139BB2038404
:100FFC007047038C23F400731B041B0C43EA01237E
:10100C009BB203847047038C23F400631B041B0CFA
:10101C0043EA01239BB203847047038C23F40053EF
:10102C001B041B0C43EA01339BB20384704710B5BD
:10103C000124038C8C409BB223EA04030384038CAD
:10104C008A401A4392B2028410BD10B50424038C5A
:10105C008C409BB223EA04030384038C8A401A431A
:10106C0092B2028410BD30B50125048C8D40A4B21F
:10107C0024EA050400F11803048421F0080040B9A7
:10108C004908C85820F07000C850C8580243CA50CC
:10109C0030BD0439C1F34E01C858120220F4E040AF
:1010AC00C850C85892B2F1E7038821B19BB243F003
:1010BC0002030380704723F002031B041B0CF8E7A8
:1010CC00038821B19BB243F004030380704723F0E3
:1010DC0004031B041B0CF8E7838821B19BB243F07B
:1010EC0080038380704723F080031B041B0CF8E7FC
:1010FC00038823F008031B041B0C038003889BB29A
:10110C000B4303807047838823F070031B041B0C74
:10111C00838083889BB20B4383807047038923F0C1
:10112C0007031B041B0C038103899BB20B43038134
:10113C007047038923F080031B041B0C0381038974
:10114C009BB20B4303817047818470478185704744
:10115C00818670470187704781877047A0F84010DF
:10116C007047038B23F00C031B041B0C0383038BB2
:10117C009BB20B4303837047028B22F44062120430
:10118C00120C0283038B9BB243EA01239BB20383B1
:10119C007047F8B50C464988A2880029B4F800C0FD
:1011AC000CBF02260026012A0CBF02270127238927
:1011BC00BCF1000F0ED1FFF7C7FAE188FFF7D1FFA2
:1011CC0031463A462389FFF7F7FAE188BDE8F84043
:1011DC00FFF7D2BFFFF7F0FAE188FFF7CDFF3146FA
:1011EC003A462389FFF7B0FAE188BDE8F840FFF7EB
:1011FC00B8BF838B23F00C031B041B0C8383838BE2
:10120C009BB20B4383837047828B22F4406212049F
:10121C00120C8283838B9BB243EA01239BB28383A0
:10122C0070470000F8B50F46098804467D88BA88D7
:10123C003B8939B92946FFF787FAF988BDE8F840A8
:10124C00FFF78FBF042907D12946FFF7B5FAF988B4
:10125C00BDE8F840FFF790BF0829008CF98836D11B
:10126C0020F480700004000C2084A68B208CB6B275
:10127C0026F0F306164346EA0316334B2F029C4224
:10128C0080B2BFB2B6B212D003F500639C420ED04E
:10129C00B4F1804F0BD0A3F598339C4207D003F5E3
:1012AC0080639C4203D003F580639C420BD120F4F5
:1012BC000070384340F48070A68320842046BDE83B
:1012CC00F840FFF796BF20F420602843F2E720F4A3
:1012DC0080500004000C2084A78B1E0327F4407759
:1012EC00194B3F05208C3F0D46EA02264FEA053C80
:1012FC003E439C4280B21FFA8CFCB6B212D003F56E
:10130C0000639C420ED0B4F1804F0BD0A3F5983300
:10131C009C4207D003F580639C4203D003F58063A5
:10132C009C420CD120F400504CEA000343F480534F
:10133C00A68320462384BDE8F840FFF765BF47F637
:10134C00FF5303402B43F1E7002C0140038823F4A7
:10135C0040731B041B0C038003889BB20B4303805C
:10136C007047808E80B27047008F80B27047808F3C
:10137C0080B27047B0F8400080B27047808C80B269
:10138C007047008D80B27047038A194214BF012048
:10139C0000207047C94389B201827047038A828951
:1013AC0011EA030092B203D00A4214BF01200020BC
:1013BC007047C94389B201827047000008B50B4BD6
:1013CC00012198420AD14FF0007000F0E9FC002195
:1013DC004FF00070BDE8084000F0E2BC4FF08060B8
:1013EC0000F0DEFC00214FF08060F3E70064004069
:1013FC00036823F002030360036843F001030360F6
:10140C004FF480334268D20701D4013BFAD14368D0
:10141C0013F0010354D08B79012B03680CBF43F0FC
:10142C00800323F080030360CB79012B03680CBF8E
:10143C0043F0400323F0400303600B7A012B036855
:10144C000CBF43F0200323F0200303604B7A012BE5
:10145C0003680CBF43F0100323F0100303608B7A76
:10146C00012B03680CBF43F0080323F0080303604F
:10147C00CB7A012B03680CBF43F0040323F0040365
:10148C000360CB788A781B0643EA82730A7943EAB5
:10149C0002434A7943EA02530A88013A1343C3616F
:1014AC00036823F0010303604FF480334268D207D2
:1014BC0001D5013BFAD14068C04300F001007047F0
:1014CC00184670470121354A30B5D2F80042837A6C
:1014DC0044F00104C2F80042D2F81C52994025EAAB
:1014EC000105C2F81C52057BCC43002D34D1D2F837
:1014FC000C52DB002540C2F80C52C588428803F11F
:10150C00804342EA054203F5C843C3F8402285886C
:10151C00028842EA0542C3F84422C27A1F4B82BBBE
:10152C00D3F804222240C3F8042202896ABBD3F800
:10153C0014221440C3F81442437B012B174B02BFF7
:10154C00D3F81C221143C3F81C12D3F8002222F04A
:10155C000102C3F8002230BD012DDED1D2F80C52AD
:10156C00DB000D43C2F80C520588428803F180431E
:10157C0042EA054203F5C843C3F840228588C28875
:10158C00C7E7D3F804220A43CDE7012A01BF034A77
:10159C00D2F814320B43C2F81432CDE70064004089
:1015AC00012340F203220380002382804380C38006
:1015BC0003814381704700000D4BD3F8001241F0BA
:1015CC000101C3F80012D3F8002222F47C5222F05D
:1015DC000E02C3F80022D3F8002242EA0022C3F81C
:1015EC000022D3F8002222F00102C3F80022704737
:1015FC0000640040036819B143F480330360704702
:10160C0023F48033FAE70368A9B143F08003036045
:10161C00D0F8843143F48073C0F88431D0F894311D
:10162C0043F48073C0F89431D0F8A43143F4807340
:10163C00C0F8A431704723F080030360D0F88431E4
:10164C0023F48073C0F88431D0F8943123F4807380
:10165C00C0F89431D0F8A43123F48073E8E78368A0
:10166C00F0B5044658013AD4A3681A0139D4A368DA
:10167C00DB0040D5022004EB0013D3F880214FEAA5
:10168C00001C02F00102C3F880210E7A4A7A56BB84
:10169C000F68D3F8806142EA47523243C3F8802185
:1016AC008A7A644402F00F028A72D3F8846126F0BD
:1016BC000F06C3F88461D3F884613243C3F88421E4
:1016CC00D1F80B20C4F88821D1F80F20C4F88C2154
:1016DC00D3F8802142F00102C3F88021F0BD002034
:1016EC00C9E70120C7E74D68D3F8807142EAC5020B
:1016FC0032433A43D2E70420F0E7000001290346C5
:10170C0008460ED0022913D0E1B9996821F07B412B
:10171C0021F47F0121F47F4121F0FC0191B10A48B1
:10172C000CE09A68094B02EA03019343F6D1704727
:10173C0099680748054B01409942EFD90B1A58425A
:10174C005841704702207047030000040003000852
:10175C0000000310012907D0022909D019B98368A8
:10176C0043F0800383607047836843F40043F9E7D8
:10177C00836843F40003F5E730B500EB0114D4F8AB
:10178C00B0510B0105F004051572B5BBD4F8B0517E
:10179C006D0D1560D4F8B051034405F00205557277
:1017AC00D4F8B45105F00F059572D4F8B441240A5D
:1017BC00D474D3F8B841D472D3F8B841240A147352
:1017CC00D3F8B841240C5473D3F8B841240E947355
:1017DC00D3F8BC41D473D3F8BC41240A1474D3F8A5
:1017EC00BC41240C5474D3F8BC311B0E937449B90E
:1017FC00C36843F02003C36030BDD4F8B051ED088A
:10180C005560C7E7036943F020030361F4E721B98E
:10181C00C36843F02003C3607047036943F020039F
:10182C000361704719B9C06800F0030070470129C3
:10183C0001D10069F8E700207047B1B9036823F0C3
:10184C00030343F0010303604FF48033426802F05A
:10185C000302012A01D0013BF8D1406800F00300DB
:10186C00012814BF002001207047012911D1036801
:10187C0023F0030303604FF480334268920701D0D6
:10188C00013BFAD1436813F0030F0CBF0120002079
:10189C007047022913D1036823F0030343F00203BA
:1018AC0003604FF48033426802F00302022A01D035
:1018BC00013BF8D1406800F003000228D1E700207A
:1018CC007047036823F0030343F00203036040688E
:1018DC0000F00300831E584258417047036823F000
:1018EC00020303604FF480334268920701D5013B39
:1018FC00FAD1406880F00200C0F340007047806964
:10190C0000F0700070478069000E70478069C0F36A
:10191C0007407047436912B119434161704723EA8C
:10192C000101FAE711F4700F034607D080690840F3
:10193C00C0F31300003818BF01207047CA0101D54D
:10194C004068F4E7080101D59868F0E78A014CBFBC
:10195C00D8681869EBE700000A4B994202D10023C2
:10196C00836170478A01C1F3130301D5C3607047CB
:10197C004A0101D5036170470A014CBF8360436083
:10198C00704700BF7000F03002464069084015D027
:10199C00B1F5807F4BD012D8082908D80139072916
:1019AC000BD8DFE801F0252E0A340A0A0A38202960
:1019BC0037D0402937D0102931D000207047B1F5ED
:1019CC00004F43D00CD8B1F5806F34D0B1F5006F17
:1019DC0035D0B1F5007FF0D19069C0F3400070476D
:1019EC00B1F5803F21D0B1F5003FE6D1506813E04E
:1019FC00906800F0013020F08070003818BF012092
:101A0C007047D06810F0030018BF01207047D068F1
:101A1C00C0F3C0007047D068C0F300107047106965
:101A2C00F0E71069F4E71069F6E75068F0E79069A1
:101A3C0000F0010070479069C0F380007047936913
:101A4C0013F0700F14BF0120002070475068F3E7AB
:101A5C00B1F5007F36D00FD8202927D006D804291D
:101A6C001FD0082920D0012918D07047402920D038
:101A7C00B1F5807F26D07047B1F5004F20D006D845
:101A8C00B1F5806F1ED0B1F5006F19D07047B1F56C
:101A9C00803F10D0B1F5003F10D070470A4B8360E7
:101AAC0070470823C36070471023FBE708230361CA
:101ABC0070471023FBE70823436070471023FBE7B4
:101ACC00002383610423F7E701010100014B186037
:101ADC00704700BF00300040014B5860704700BF9A
:101AEC0000300040014B9860704700BF0030004050
:101AFC004AF6AA22014B1A60704700BF0030004022
:101B0C004CF6CC42014B1A60704700BF00300040CD
:101B1C00034BDB68184214BF01200020704700BF44
:101B2C00003000400D4B1A6842F001021A605968EF
:101B3C000B4A0A405A601A6822F0847222F48032EE
:101B4C001A601A6822F480221A605A6822F4FE0283
:101B5C005A604FF41F029A60704700BF0010024099
:101B6C000000FFF80C4BB0F5803F1A6822F480326D
:101B7C001A601A6822F480221A6003D0B0F5802F04
:101B8C0005D070471A6842F480321A6070471A68A0
:101B9C0042F4A022F9E700BF00100240034A136888
:101BAC0023F0F80343EAC0031360704700100240AF
:101BBC00014B1860704700BF00004242034A536853
:101BCC0023F47C130B430343536070470010024013
:101BDC00014B1860704700BF60004242034A5368D3
:101BEC0023F0030303435360704700BF001002400F
:101BFC00024B586800F00C00704700BF0010024008
:101C0C00034A536823F0F00303435360704700BF4B
:101C1C0000100240034A536823F4E063034353600B
:101C2C00704700BF00100240034A536823F460530E
:101C3C0043EAC0035360704700100240044B1A780B
:101C4C0011B110431870704722EA0000FAE700BF88
:101C5C0009100240014B1860704700BFD800424287
:101C6C00034A536823F4404303435360704700BF57
:101C7C00001002400022064B01281A701A7002D084
:101C8C00042802D070471870704705221A707047EC
:101C9C0020100240014B1860704700BF8004424284
:101CAC00024A136A03431362704700BF00100240DC
:101CBC00014B1860704700BF3C0442421B4A10B5F0
:101CCC00536803F00C03082B1FD0194B03605368A7
:101CDC00184CC3F30313E15C0368CB4043605168B9
:101CEC00C1F30221615C23FA01F181605168C1F3F7
:101CFC00C221615CCB40C36052680F49C2F3813290
:101D0C008A5CB3FBF2F3036110BD53685168C3F3F3
:101D1C008343CC0303F1020302D408494B43D5E7B8
:101D2C0051688903F9D40249F8E700BF001002405A
:101D3C0000127A00180000201400002000093D0059
:101D4C00044B5A6911B110435861704722EA0000E4
:101D5C00FAE700BF00100240044B9A6911B110431E
:101D6C009861704722EA0000FAE700BF00100240B9
:101D7C00044BDA6911B11043D861704722EA0000B4
:101D8C00FAE700BF00100240044BDA6811B11043AF
:101D9C00D860704722EA0000FAE700BF001002404A
:101DAC00044B1A6911B110431861704722EA000004
:101DBC00FAE700BF00100240014B1860704700BFEB
:101DCC0040044242014B1860704700BF4C00424235
:101DDC00014B1870704700BF071002404209012ADE
:101DEC00074B07D11B6800F01F0023FA00F000F02E
:101DFC0001007047022A0CBF1B6A5B6AF3E700BF45
:101E0C0000100240002307B501933120FFF7E6FFD5
:101E1C00019B01330193019BB3F5A06F01D0002806
:101E2C00F3D03120FFF7DAFF003818BF012003B0E0
:101E3C005DF804FB024A536A43F0807353627047A7
:101E4C0000100240034B9B68184214BF0120002075
:101E5C00704700BF00100240014B1870704700BF64
:101E6C000A1002400022064B06491A605A609A601A
:101E7C00DA605A629A62DA629963DA63704700BF79
:101E8C0000800140FF07C0000A4910B5D0E90143AA
:101E9C004A68234322F4FD4222F07F021343C268B6
:101EAC0013430268134302691343027D13434B60CF
:101EBC0010BD00BF008001400023C0E90033C0E921
:101ECC000233037503617047014B1860704700BF04
:101EDC00A0003042044B196821F0030119601A6804
:101EEC0002431A60704700BF00800140024B186823
:101EFC0000F00300704700BF00800140044BDA6B18
:101F0C0011B11043D863704722EA0000FAE700BF12
:101F1C0000800140014B1860704700BF8C053042B7
:101F2C000368094910B58B60CA68D0E9013422F402
:101F3C00FF6222F0070223431343C2681343026972
:101F4C001343CB6010BD00BF008001400023C0E9EB
:101F5C000033C0E90233036170470000014B18697C
:101F6C00C0B2704700800140002382B00193034B44
:101F7C0003440193019B186802B070471480014020
:101F8C000368094A10B5536243689362D16AD0E979
:101F9C00023421F0F70123430B4301690B434169E0
:101FAC000B43D36210BD00BF0080014000234FF0F3
:101FBC00FF32C0E90233C0E90023C0E904337047A3
:101FCC00014B186B704700BF00800140014BD3F8E8
:101FDC008000704700800140014BC3F880007047BF
:101FEC0000800140014B986C704700BF008001409D
:101FFC00014B1860704700BFA0053042014B1860C0
:10200C00704700BFA4053042014B1860704700BFF9
:10201C00A8053042014B1860704700BFAC05304238
:10202C00014B1860704700BFAC013042014B186087
:10203C00704700BFB0013042C043024B00F00100BA
:10204C0018607047B4013042014B1860704700BFF4
:10205C00B8013042034B5B6B034214BF01200020DC
:10206C00704700BF00800140014B9863704700BF70
:10207C0000800140FFF7EEBF014B9863704700BF33
:10208C0000800140014B1868000C7047002004E0F0
:10209C00024B1868C0F30B00704700BF002004E02F
:1020AC00044B5A6811B110435860704722EA000083
:1020BC00FAE700BF002004E0036823F001031B04CF
:1020CC001B0C03600023036043608360C360294BD7
:1020DC00984204D1284A536843F00F0326E0274B5B
:1020EC00984204D1244A536843F0F0031EE0244B79
:1020FC00984204D1204A536843F4706316E0214B94
:10210C00984204D11C4A536843F470430EE01E4BB2
:10211C00984204D1184A536843F4702306E01B4BD1
:10212C00984205D1144A536843F4700353607047C6
:10213C00174B984204D1104A536843F07063F5E78B
:10214C00144B984201D1144AC5E7144B984201D163
:10215C00114AC8E7124B984201D10F4ACBE7114BF9
:10216C00984201D10C4ACEE70F4B9842DFD10A4A74
:10217C00D1E700BF08000240000002401C000240F2
:10218C003000024044000240580002406C00024003
:10219C008000024008040240000402401C0402407B
:1021AC003004024044040240580402408B6810B5CD
:1021BC000C6A026823430C6922F4FF4223434C69E6
:1021CC0022F0700223438C692343CC6923434C6A6D
:1021DC0023438C6A234313430360CB6843600B682F
:1021EC0083604B68C36010BD0023C0E90033C0E9B5
:1021FC000233C0E90433C0E90633C0E90833836213
:10220C007047036819B143F001030360704723F072
:10221C0001031B041B0CF8E7036812B1194301609E
:10222C00704723EA0101FAE741607047406880B2C9
:10223C0070470000C3004CBF034B044B1B680342A8
:10224C0014BF01200020704700040240000002402F
:10225C00C3004CBF014B024B586070470004024056
:10226C0000000240FFF7E6BFFFF7F2BF0122014B6F
:10227C009A60704700300240014B18601868704734
:10228C0000300240054B00EB8101884201D11868F7
:10229C00704750F8042B1A60F7E700BF003002407B
:1022AC00014B1868704700BF00300240014B187199
:1022BC00704700BF00300240014B1879704700BFD7
:1022CC0000300240034A136803F0380303431360E1
:1022DC00704700BF00200240044B196821F0080130
:1022EC0019601A6802431A60704700BF0020024050
:1022FC00044B196821F0100119601A6802431A6026
:10230C00704700BF00200240034B044A5A6002F1A0
:10231C0088325A60704700BF002002402301674595
:10232C00FFF7F2BF024A136943F080031361704751
:10233C0000200240FFF7F6BF014BD86980087047B8
:10234C0000200240014B186A704700BF0020024079
:10235C00024BD869C0F34000704700BF0020024018
:10236C00024B1868C0F34010704700BF00200240B9
:10237C00044B1A6911B110431861704722EA00002E
:10238C00FAE700BF002002400128064B03D1D869B0
:10239C0000F001007047DB68034214BF01200020ED
:1023AC00704700BF00200240014BD860704700BF4F
:1023BC0000200240084BDA68D10709D4DA685207CA
:1023CC0008D4DB6813F0100F14BF032004207047EF
:1023DC00012070470220704700200240084BDA6849
:1023EC00D10709D4DA68520708D4DB6813F0100F50
:1023FC0014BF03200420704701207047022070474F
:10240C000020024010B50446FFF7E8FF012806D172
:10241C000CB9052010BDFFF7E1FF013CF6E7002CDD
:10242C0008BF0520F6E7000038B505464FF430200C
:10243C00FFF7E8FF042813D10A4C4FF4302023692E
:10244C0043F0020323616561236943F04003236178
:10245C00FFF7D8FF236923F00203DB04DB0C2361B5
:10246C0038BD00BF002002404FF4302010B5FFF7FC
:10247C00C9FF042812D10A4C4FF43020236943F0D1
:10248C0004032361236943F040032361FFF7BAFF80
:10249C00236923F00403DB04DB0C236110BD00BFB4
:1024AC0000200240FFF7E0BF38B5FFF751FF0028CE
:1024BC004FF430200CBFA5250025FFF7A3FF0428FF
:1024CC002BD1164C164B4FF43020A36003F18833FC
:1024DC00A360236943F020032361236943F0400385
:1024EC002361FFF78FFF04280FD123694FF40050AD
:1024FC0023F02003DB04DB0C2361236943F010037E
:10250C002361084B1D80FFF77DFF052805D023694B
:10251C0023F01003DB04DB0C236138BD00200240E8
:10252C002301674500F8FF1F002373B506464FF4DF
:10253C0000500D460193FFF765FF04281BD10F4C8B
:10254C004FF40050236943F001032361ABB2338095
:10255C00FFF758FF042808D102360196019B2D0C79
:10256C004FF400501D80FFF74DFF236923F001034A
:10257C00DB04DB0C236102B070BD00BF0020024005
:10258C0070B505464FF400500E46FFF73BFF04288C
:10259C000FD1084C4FF40050236943F00103236121
:1025AC002E80FFF72FFF236923F00103DB04DB0CE4
:1025BC00236170BD0020024070B506464FF40050F8
:1025CC000D46FFF71FFF042817D10C4C0C4BADB276
:1025DC00A36003F18833A36023694FF4005043F0E8
:1025EC00100323613580FFF70DFF052805D0236903
:1025FC0023F01003DB04DB0C236170BD00200240D0
:10260C002301674510B504464FF40050FFF7FAFE5E
:10261C0004283BD1E443224B224AE1B29A6002F1F6
:10262C0088329A601A69FF2942F010021A6123D18C
:10263C00C4F30723FF2B07D01B4A4FF400505381E0
:10264C00FFF7E0FE04281FD1C4F30743FF2B07D08C
:10265C00154A4FF400509381FFF7D4FE042813D190
:10266C00240EFF2C13D104200D4A136923F0100300
:10267C00DB04DB0C136109E00B4B4FF400501981A8
:10268C00FFF7C0FE0428D3D00528EDD110BD064BB2
:10269C00A4B2DC814FF40050FFF7B4FEF4E700BFA6
:1026AC00002002402301674500F8FF1F38B505469E
:1026BC004FF43020FFF7A6FE04282ED11D4C1E4BE4
:1026CC004FF43020A36003F18833A360236943F0F7
:1026DC0020032361236943F040032361FFF792FE3B
:1026EC0004281DD1236923F02003DB04DB0C2361B8
:1026FC00236943F010032361104B7DB100224FF48A
:10270C0030201A80FFF77EFE052806D0094A13698F
:10271C0023F01003DB04DB0C136138BDA522EEE7BC
:10272C000528FAD0236923F02003DB04DB0C23619A
:10273C00F3E700BF002002402301674500F8FF1FAC
:10274C00F8B5134D134B0746AB6003F188334FF4C8
:10275C000050AB600C461646FFF754FE042815D10A
:10276C002B693E4343F010032B6134430A4B44F076
:10277C00F8044FF400505C80FFF744FE052805D0A8
:10278C002B6923F01003DB04DB0C2B61F8BD00BFBD
:10279C00002002402301674500F8FF1FFFF732BEFF
:1027AC0008B5214B98420BD101214FF48040FFF723
:1027BC00EBFABDE8084000214FF48040FFF7E4BA83
:1027CC001A4B98420BD101214FF40030FFF7E8FA75
:1027DC0000214FF40030BDE80840FFF7E1BA144B7C
:1027EC00984208D101214FF48020FFF7D9FA00213B
:1027FC004FF48020EFE70F4B984208D101214FF4A2
:10280C000020FFF7CDFA00214FF40020E3E70A4B3C
:10281C00984208D101214FF48010FFF7C1FA002132
:10282C004FF48010D7E708BD003801400044004049
:10283C0000480040004C00400050004030B50D46B0
:10284C000446038A8A899BB2C98823F440530B43FC
:10285C0003828389A98823F4B05323F00C031B044F
:10286C001B0C0B43298987B00B4369890B439BB223
:10287C008381838A9BB223F440731343838201A820
:10288C00FFF71CFADDE90313154A944208BF1946F9
:10289C001923A2894B43296810044CBF49008900B5
:1028AC00B3FBF1F16425B1FBF5F3A2891801120415
:1028BC0005FB13130BD5DA003232B2FBF5F202F042
:1028CC00070242EA00039BB2238107B030BD1B0113
:1028DC003233B3FBF5F303F00F030343F3E700BF0D
:1028EC00003801404FF416520023C0E900234FF486
:1028FC0040228381826070470B8810B54C88028A15
:10290C0023438C88C98892B223430B4322F4706210
:10291C0013439BB2038210BD00230380438083804A
:10292C00C3807047838921B19BB243F400538381E8
:10293C00704723F400531B041B0CF8E7012310B55C
:10294C00C1F342149C4201F01F0103FA01F105D1BD
:10295C000C3003683AB11943016010BD022C0CBF56
:10296C0010301430F5E723EA0101F5E7838A9BB2B6
:10297C0012B119438182704723EA0101FAE7038AF5
:10298C0023F00F031B041B0C0382038A9BB20B4323
:10299C0003827047838923F400631B041B0C83811F
:1029AC0083899BB20B4383817047838921B19BB28E
:1029BC0043F002038381704723F002031B041B0CBA
:1029CC00F8E7038A23F020031B041B0C0382038A01
:1029DC009BB20B4303827047038A21B19BB243F431
:1029EC0080430382704723F480431B041B0CF8E7DD
:1029FC00C1F30801818070478088C0F308007047DC
:102A0C0083899BB243F0010383817047028BD2B25E
:102A1C000283038B9BB243EA012303837047028B2F
:102A2C0002F47F420283038B9BB20B4303837047F8
:102A3C00838A21B19BB243F020038382704723F039
:102A4C0020031B041B0CF8E7838A21B19BB243F0D3
:102A5C0010038382704723F010031B041B0CF8E750
:102A6C00838A21B19BB243F008038382704723F021
:102A7C0008031B041B0CF8E7838931B16FEA43434D
:102A8C006FEA53439BB283817047C3F30E03FAE79B
:102A9C00838A21B19BB243F400638382704723F491
:102AAC0000631B041B0CF8E7838A23F004031B044C
:102ABC001B0C8382838A9BB20B4383827047838A6D
:102ACC0021B19BB243F002038382704723F00203CF
:102ADC001B041B0CF8E70388194214BF01200020CB
:102AEC007047C94389B201807047012310B5C1F307
:102AFC0042140246012C01F01F0003FA00F30ED120
:102B0C009089128880B2184092B238B10123090A18
:102B1C0003FA01F10A4214BF1846002010BD022C22
:102B2C000CBF108A908AECE70123090A8B40DB4327
:102B3C009BB20380704700000022044B1A605A605D
:102B4C009A60DA60024A5A61704700BF0004014083
:102B5C00FFFF0F00027930B58379056802F18042DE
:102B6C00E94302F5823223B3144B1C680C401C6001
:102B7C005C682140596011682943116099680268AA
:102B8C0021EA02019960D96821EA0201D9604179F0
:102B9C00102906D1996811439960D9680A43DA6003
:102BAC0030BD01F1804303F5823319680A431A6082
:102BBC00F6E713680B401360F2E700BF0004014016
:102BCC0000234FF4406203608280837170470000E1
:102BDC00024A136903431361704700BF00040140AC
:102BEC00034B5B69034214BF01200020704700BFF8
:102BFC0000040140014B5861704700BF00040140C4
:102C0C000246054B19685869104003D0114214BF95
:102C1C0001200020704700BF00040140014B5861A7
:102C2C00704700BF0004014008B5154B98420BD10A
:102C3C0001214FF48050FFF7A7F8BDE808400021B0
:102C4C004FF48050FFF7A0B80E4B98420BD10121E6
:102C5C004FF48040FFF7A4F800214FF48040BDE80A
:102C6C000840FFF79DB8084B984208D101214FF45A
:102C7C000040FFF795F800214FF40040EFE708BD46
:102C8C000030014000380040003C0040038810B583
:102C9C0003F441524C880B8823438C882343CC8803
:102CAC0023430C8923434C8923438C892343CC89AC
:102CBC00234313439BB20380838B23F400631B04D5
:102CCC001B0C83830B8A038210BD838BF0B523F41A
:102CDC007B6323F00F031B041B0C838302230384ED
:102CEC008B68848B022B05460E4687B0A4B236D077
:102CFC008B8801A8002B14BF02270127FEF7DEFFEB
:102D0C00F3880199B3F5007F1CBF7B01B1FBF3F392
:102D1C004FF00A0208BF0B0A5343B0680A22B3FBF8
:102D2C00F0F305339BB2B3FBF2F303F00102C3F3F0
:102D3C004F03991EFD2912D812021343F288134334
:102D4C002B847288338813432343B4882343B48978
:102D5C0023439BB243F40063AB8307B0F0BD002266
:102D6C000223EAE70023038043808380C38003812E
:102D7C0043818381C381072303827047002302228E
:102D8C00C0E90033826083817047038821B19BB214
:102D9C0043F040030380704723F040031B041B0CDB
:102DAC00F8E7838B21B19BB243F480638383704734
:102DBC0023F480631B041B0CF8E70B0901219940D9
:102DCC00838889B29BB212B119438180704723EA80
:102DDC000101FAE783889BB212B1194381807047D5
:102DEC0023EA0101FAE781817047808980B270473C
:102DFC004FF6FF63994203880BBF23F480739BB299
:102E0C001B0443F4807308BF1B0C0380704783883A
:102E1C0021B19BB243F004038380704723F0040379
:102E2C001B041B0CF8E7038823F400631B041B0C26
:102E3C00038003889BB20B430380704703889BB2CB
:102E4C0043F4805303807047038821B19BB243F451
:102E5C0000530380704723F400531B041B0CF8E74A
:102E6C00012914BF008B808A80B27047008A80B21F
:102E7C0070470388B1F5804F15BF23F480439BB294
:102E8C001B0443F4804318BF1B0C03807047038959
:102E9C00194214BF012000207047C94389B2018137
:102EAC007047012310B58488008901F00F0280B2AD
:102EBC0003FA02F21040A4B206D0090903FA01F198
:102ECC000C4214BF1846002010BD012301F00F0165
:102EDC008B40DB439BB20381704708B50120FEF7A2
:102EEC006BFFBDE808400020FEF766BF014B186081
:102EFC00704700BF04860D42014B1860704700BF3D
:102F0C0000860D42014B1860704700BF88860D4249
:102F1C00044A938D23F460731B041B0C03439385A9
:102F2C00704700BF006C0040044A938D23F07F0370
:102F3C001B041B0C03439385704700BF006C0040BF
:102F4C00002382B00193044B0193019B1844019020
:102F5C00019B196002B07047006C0040002382B0E6
:102F6C000193054B0193019B18440190019B188818
:102F7C0080B202B0704700BF006C0040014B186873
:102F8C00C0B27047A0860D42034A938E9BB243F0A9
:102F9C0001039386704700BF006C0040014B18681A
:102FAC00C0B27047A4860D42034A938E9BB243F085
:102FBC0002039386704700BF006C00404FF0204323
:102FCC0058B943F2DB021A606FF07043800000F1D5
:102FDC0020404360C0F80431704743F2D20243F8FA
:102FEC002020F1E74022182110280CBF044B054B80
:102FFC0019605A604FF0FC329A60DA60704700BF7B
:10300C00600000A0800000A01822054B1A6000226E
:10301C005A604FF0FC329A60DA601A61704700BF58
:10302C00A00000A08168436830B5C4680B432343FB
:10303C000469C26A23434469082943EA0403846986
:10304C00416B43EA0403C4698D6943EA0403046ACF
:10305C0043EA0403446A43EA0403846A43EA04032C
:10306C00046B43EA020343EA040304684FEA840452
:10307C0004F12044236002BF236843F04003236023
:10308C000B68B2F5804F43EA05034D6843EA05131C
:10309C008D6843EA0523CD6843EA05430D69496908
:1030AC0043EA055343EA0163636012D1826B916971
:1030BC0013680B43516843EA0113916843EA0123F7
:1030CC001169526943EA015343EA0263C4F80431BB
:1030DC0030BD6FF07043F9E7D0E9013213438269D8
:1030EC0030B543EA4233C268C469134302691343DF
:1030FC00426943EA4223D4E901521104226841EAAD
:10310C0005211143E268046A41EA02610068D4E9CE
:10311C000152120442EA052225681028E4680CBF0B
:10312C00054806482A4343F0080342EA0462036058
:10313C008160C26030BD00BF600000A0800000A0B4
:10314C00D0E901235B0343EA42230268C1681343BD
:10315C00144A43F0100310B51360D1E901431B046A
:10316C0043EA04230C68C968234343EA01630169F9
:10317C009360D1E901431B0443EA04230C68C9683A
:10318C00234343EA01634169D360D1E901031B0482
:10319C0043EA00230868C968034343EA01631361E7
:1031AC0010BD00BFA00000A0002302224FF48051EC
:1031BC00C0E900324FF4005210B5C0E90912FF24E7
:1031CC000F22416BC0E90233C0E90433C0E9063376
:1031DC00C0E90B330362C1E90022C1E90242C1E933
:1031EC0004228B61816BC1E90022C1E90242C1E971
:1031FC0004228B6110BD00231022C0E90233C0E908
:10320C000023C0E904338361FC23C269C2E90033A3
:10321C00C2E90233026AC2E90033C2E902337047E1
:10322C000023C0E900338360FC23C268C2E9003389
:10323C00C2E902330269C2E90033C2E902334269CE
:10324C00C2E90033C2E9023370470000800000F18C
:10325C00204021B1036843F001030360704702680A
:10326C00014B1340F9E700BFFEFF0F0041B11028DE
:10327C000CBF074A074A136843F0040313607047F6
:10328C0010280CBF024A034A034913680B40F5E7A8
:10329C00600000A0800000A0FBFF0F00054B20B1D8
:1032AC001A6842F004021A6070471968024A0A4010
:1032BC00F9E700BFA00000A0FBFF0F0041B11028F0
:1032CC000CBF074A074A136843F04003136070476A
:1032DC0010280CBF024A034A034913680B40F5E758
:1032EC00600000A0800000A0BFFF0F0010280CBFE2
:1032FC00014B024B58697047600000A0800000A091
:10330C0062B1102804D10C4A5368194351607047BC
:10331C00B0F5807F0CBF094A094AF5E710286FEA1F
:10332C00010103D1044A53681940EFE7B0F5807FDF
:10333C000CBF024A024AF6E7600000A0800000A021
:10334C00A00000A0102806D1064B5B680B4214BFEE
:10335C00012000207047B0F5807F0CBF024B034B5F
:10336C00F3E700BF600000A0800000A0A00000A058
:10337C0010286FEA010104D1054A536819405160C5
:10338C007047B0F5807F0CBF024A034AF5E700BFD7
:10339C00600000A0800000A0A00000A010280AD1AE
:1033AC00084B5B6813EA010004D013EAD10314BF85
:1033BC00012000207047B0F5807F0CBF024B034BFF
:1033CC00EFE700BF600000A0800000A0A00000A0FC
:1033DC0010286FEAD10104D1054A53681940516095
:1033EC007047B0F5807F0CBF024A034AF5E700BF77
:1033FC00600000A0800000A0A00000A0044A138878
:10340C009BB211B118431080704723EA0000FAE711
:10341C0000280040034A93889BB243F0100393802A
:10342C00704700BF00280040034A938823F0100324
:10343C001B041B0C9380704700280040034A938B9D
:10344C00108B9BB243EA0040704700BF002800403D
:10345C0008B5FFF7DFFF044B020C80B21A83988388
:10346C00BDE80840FFF7E0BF0028004008B5FFF7B3
:10347C00D1FF054BC0F3034280B21A819881BDE89D
:10348C000840FFF7D1BF00BF0028004008B5FFF788
:10349C00C1FF044B020C80B21A849884BDE808402A
:1034AC00FFF7C2BF00280040044A138A908A1B040D
:1034BC0003F4702380B21843704700BF002800400B
:1034CC00024A93889B06FCD5704700BF0028004039
:1034DC00054A938823F008031B041B0C93809388E4
:1034EC001B07FCD5704700BF00280040034B9B888E
:1034FC00184214BF01200020704700BF0028004074
:10350C00034A93889BB223EA00039380704700BF61
:10351C0000280040064B01469A881B8892B218403E
:10352C0005D002EA0100C0B2003818BF0120704774
:10353C0000280040FFF7E4BF08B501214FF40060FC
:10354C00FEF72EFCBDE8084000214FF40060FEF7AA
:10355C0027BC0000034A536823F4C0730343536031
:10356C00704700BF002C0040002382B0074A019333
:10357C00536800F07F0023F07F030193019B1843F5
:10358C000190019B536002B0704700BF002C0040BB
:10359C000122014B1A607047A4800542024B00F0D7
:1035AC007F001860704700BF002C0040024B40F0B9
:1035BC0080001860704700BF002C0040014B9868D9
:1035CC00C0B27047002C00400022014B9A6070473B
:1035DC00002C004008B50B4B012198420AD14FF446
:1035EC000010FEF7DDFB00214FF40010BDE8084091
:1035FC00FEF7D6BB4FF48000FEF7D2FB00214FF450
:10360C008000F3E70054004070B586B0044686880D
:10361C0001A80D46FEF752FB039A2E4926F03F06F1
:10362C00B2FBF1F13604360C88B20643A68023882F
:10363C00294E23F001031B041B0C23802B68B3427F
:10364C0023D85B00B2FBF3F39BB2042B38BF0423EB
:10365C00013080B22084A3832388AA889BB243F0D4
:10366C00010323802388698923F4816323F00203F7
:10367C001B040A431B0C13439BB22A892380AB897E
:10368C0013439BB2238106B070BD4BF6FF70EE88DE
:10369C0086421BBF1920434303EB4303B2FBF3F3F6
:1036AC000BBFB2FBF3F39BB29BB243F48043C3F367
:1036BC000B020AB943F001034FF496724A434FF4DC
:1036CC007A71B2FBF1F2013292B243F400432284DC
:1036DC00C1E700BF40420F00A086010041F28832D2
:1036EC00044BC0E90023002383604FF480438381A3
:1036FC00704700BF0000FFBF038821B19BB243F0AD
:10370C0001030380704723F001031B041B0CF8E733
:10371C00838821B19BB243F400638380704723F408
:10372C0000631B041B0CF8E7838821B19BB243F4A4
:10373C0080538380704723F480531B041B0CF8E7E1
:10374C00038821B19BB243F480730380704723F448
:10375C0080731B041B0CF8E7038821B19BB243F464
:10376C0000730380704723F400731B041B0CF8E7F1
:10377C00038821B19BB243F480630380704723F428
:10378C0080631B041B0CF8E7838901F0FE019BB2DC
:10379C0023F0FE03194381817047838921B19BB2C9
:1037AC0043F001038381704723F001031B041B0CBE
:1037BC00F8E7038821B19BB243F0400303807047C4
:1037CC0023F040031B041B0CF8E783889BB212B157
:1037DC0019438180704723EA0101FAE7018270479F
:1037EC00008AC0B2704722B141F0010189B2018256
:1037FC00704701F0FE01F9E7002382B001930190BC
:10380C00019B19440191019B188880B202B070474A
:10381C00038831B16FEA43436FEA53439BB2038091
:10382C007047C3F30E03FAE70388B1F5006F15BFB9
:10383C0023F400639BB21B0443F4006318BF1B0CFE
:10384C00038070470388B1F5005F15BF23F4005364
:10385C009BB21B0443F4005318BF1B0C038070472E
:10386C00038821B19BB243F480530380704723F447
:10387C0080531B041B0CF8E7FFF7D6BF038821B15C
:10388C009BB243F020030380704723F020031B04FA
:10389C001B0CF8E7008BC0F307207047038821B19D
:1038AC009BB243F010030380704723F010031B04FA
:1038BC001B0CF8E7038821B99BB243F0800303800B
:1038CC00704723F080031B041B0CF8E7838BB1F5C6
:1038DC00804F1BBF23F480431B049BB21B0C08BFFF
:1038EC0043F4804383837047838A008B9BB243EA03
:1038FC0000430B4023F07F435B1A584258417047FA
:10390C00838A008B9BB243EA004020F07F407047D3
:10391C00002382B0009301930B0F01900093009B46
:10392C0021F07F4153B1019B14330193019B1B6820
:10393C000B4214BF0120002002B07047019B090C00
:10394C001833F2E7C94389B2818270478388808A31
:10395C009BB280B2084006D003EA114111F4E06F2B
:10396C0014BF012000207047C94389B2818270477F
:10397C0008B501214FF08040FEF712FABDE808406F
:10398C0000214FF08040FEF70BBA00000549028879
:10399C000B68408803F0F303024313439BB20B60A4
:1039AC00704700BF00780040034B186018B9034AF9
:1039BC001368DB07FCD4704700000F42007800400E
:1039CC00014B1860704700BF04000F42014B586058
:1039DC00704700BF00780040014B9860704700BFF3
:1039EC0000780040014B5861704700BF00780040E0
:1039FC00014B9869C0B27047007800400122014B1E
:103A0C001A60704700020F42014B1860704700BFEC
:103A1C0004020F42020F14BF054A064A20F07F43EE
:103A2C00126818BF1B0C1A4214BF012000207047EB
:103A3C000C78004010780040C343064A10B5116959
:103A4C0023F00303146901F002010B4323401361BB
:103A5C0010BD00BF00780040034B1A681B6918406A
:103A6C0018BFC2F34000704700780040C343064AB9
:103A7C0010B5116923F00303146901F002010B4323
:103A8C002340136110BD00BF0078004008B5264BE1
:103A9C00984209D101210420FEF776F90021042077
:103AAC00BDE80840FEF770B9204B984206D10121C1
:103ABC000820FEF769F900210820F1E71C4B984219
:103ACC0006D101211020FEF75FF900211020E7E755
:103ADC00184B984206D101212020FEF755F9002100
:103AEC002020DDE7144B984206D101214020FEF73F
:103AFC004BF900214020D3E7104B984206D101210D
:103B0C008020FEF741F900218020C9E70C4B984238
:103B1C0008D101214FF48070FEF736F900214FF4E3
:103B2C008070BDE708BD00BF00080140000C0140DB
:103B3C00001001400014014000180140001C01401D
:103B4C0000200140012108B50846FEF71DF9BDE82B
:103B5C00084000210120FEF717B92DE9F041CB7880
:103B6C000E88DA0648BF8A7803F00F0548BF154364
:103B7C000A78D2B100214FF0010C4FF00F0E026801
:103B8C000CFA01F737EA06040BD18C000EFA04F894
:103B9C0022EA080205FA04F4282B42EA040224D192
:103BAC00476101310829EBD10260FF2E1BD9082493
:103BBC004FF0010C4FF00F0E41680CFA04F737EA86
:103BCC0006020CD1A200203A0EFA02F821EA0801F2
:103BDC0005FA02F2282B41EA02010AD147610134AD
:103BEC00102CEAD14160BDE8F081482B08BF076179
:103BFC00D7E7482B08BF0761F1E74FF6FF73038047
:103C0C0040F20243438070478368194214BF01207D
:103C1C0000207047806880B27047C368194214BF97
:103C2C00012000207047C06880B270470161704766
:103C3C00416170470AB10161704741617047C160D1
:103C4C00704741F480338361816183618369836947
:103C5C0070470000054A136823F07F031B041B0CFC
:103C6C000B4343EA00131360704700BF0000014090
:103C7C00014B1860704700BF1C0020420028164AF8
:103C8C0030B500F44015B4BFD3695368B5F5401F87
:103C9C0084B210D1556823F0706325F070655560BF
:103CAC0019B1420D1201944023430B4A0028B4BFB2
:103CBC00D361536030BDC2024DBF0322420D1201CD
:103CCC00C0F303454CBFAA4004FA02F223EA0203F4
:103CDC0043F07063E4E700BF0000014010B50F240F
:103CEC0001F0030301F0FC0101F1804101F5803189
:103CFC008A689B009C4022EA04028A608A68984089
:103D0C001043886010BD0000014B1860704700BF65
:103D1C00DC002042034B40F0BF6040F40030D86020
:103D2C00704700BF00ED00E070B50125017801F08F
:103D3C001F039D40C3784C09C3B10F4BDA6843781D
:103D4C00D243C2F30222C2F1040603FA06F68378C8
:103D5C000F2020FA02F213403343084A1B01DBB256
:103D6C00114481F8003342F8245070BD034B2034C9
:103D7C0043F82450F9E700BF00ED00E000E100E05B
:103D8C0021F06041024B21F07F01014399607047A3
:103D9C0000ED00E0044B1A6911B110431861704733
:103DAC0022EA0000FAE700BF00ED00E0044B042813
:103DBC001A680CBF42F0040222F004021A60704729
:103DCC0010E000E008B501214FF00050FDF7E8FFCE
:103DDC00BDE8084000214FF00050FDF7E1BF0000A6
:103DEC0040F6FE7330B5084C8340226822EA030289
:103DFC00D1E900352B438D68C9682B430B4303FA7B
:103E0C0000F01043206030BD007400400023C0E976
:103E1C000033C0E902337047012303FA00F0044B6E
:103E2C001A6811B110431860704722EA0000FAE7D3
:103E3C00007400404FF4805303FA00F0044B1A68EE
:103E4C0011B110431860704722EA0000FAE700BF76
:103E5C0000740040030901209840044B5A6811B1CA
:103E6C0010435860704722EA0000FAE700740040E3
:103E7C00044B5A6818B142F003025A60704722F0A2
:103E8C000302FAE700740040044B8140186812B139
:103E9C0001431960704720EA0101FAE70074004001
:103EAC00002382B00193054B0193019B083303441B
:103EBC000193019B196002B0704700BF0074004071
:103ECC00002382B00193054B0193019B14330344EF
:103EDC000193019B196002B0704700BF0074004051
:103EEC000828044B0CBF42EA012242EA0142C250AC
:103EFC00704700BF20740040002382B00193064B32
:103F0C000193019B2C3303EB90030193019B1868E5
:103F1C0080B202B0704700BF00740040EFF309801C
:103F2C000046704780F309887047EFF3088000461D
:103F3C00704780F308887047EFF31280704780F366
:103F4C0011887047EFF31080704780F3108870472A
:103F5C00EFF31380704780F313887047EFF31480EE
:103F6C00704780F31488704700BA704740BA7047A6
:103F7C00C0BA704790FAA0F07047D0E84F0FC0B2AB
:103F8C007047D0E85F0F80B2704750E8000F704761
:103F9C00C1E8430F18467047C1E8530F18467047E5
:103FAC0041E8000070470000002103E00A4B5B5819
:103FBC004350043109480A4B42189A42F6D3094A35
:103FCC0002E0002342F8043B074B9A42F9D3FCF77A
:103FDC00A1F8FCF75FF97047FC3F000800000020D7
:103FEC00280000202800002028000020FEE7000008
:103FFC00000000000000000001020304060708098D
:10400C0000A24A0402040608000000000102030496
:08401C00010203040607080974
:0400000508003FB5FB
:00000001FF
